:060000000A128A1100291A
:10000800F000030EF1000B180E20710E8300F00EA5
:10001800700E090003138312061C850A861C8503CB
:040028000B100800B1
:10020000102121210721282103138312062903131A
:100210008316161496140313831206080B10080095
:10022000031783168801890103138316F0308500B4
:100230000614861481131514951403138312850173
:100240000800031383160F140F128F160F170800E0
:080250008B178B150B10080041
:04400E00C430FF3F7C
:00000001FF
