:060000000A128A1100291A
:10000800F000030EF1000B1810200B191820710EC8
:100018008300F00E700E090003138312061C850A74
:10002800861C85030B10080003138312B23081006D
:100038000B11A00A2008323C031923280800A20A41
:100048002208A0010A3C03192A280800A30A230849
:10005800A201063C031931280800A301A2010800E7
:1002000017212C2133210E214021031383122208B0
:100210000022880023080022870007290313831681
:10022000161496140313831206080B100800031704
:1002300083168801890103138316F03085000614A4
:1002400086148701880181131514951403138312F2
:100250008501880187010800031383160F140F120C
:100260008F160F17080003138316811281110115D1
:100270008114011403138312B23081000B110800A2
:10028000031383128B178B150B108B160B110800A1
:100400008A018A140F3982073F3406345B344F3433
:1004100066346D347D3407347F346F3477347C3404
:0804200039345E347934713483
:04400E00C430FF3F7C
:00000001FF
